{
    "tests/monad/precompile_benchmarks/test_identity.py::test_single_32k_byte[fork_Berlin-blockchain_test]": {
        "network": "Berlin",
        "genesisBlockHeader": {
            "parentHash": "0x0000000000000000000000000000000000000000000000000000000000000000",
            "uncleHash": "0x1dcc4de8dec75d7aab85b567b6ccd41ad312451b948a7413f0a142fd40d49347",
            "coinbase": "0x0000000000000000000000000000000000000000",
            "stateRoot": "0xdd18e83746eb9f67962d93171c8d25bc6aa104d56f8bec32f2672c82f87d311e",
            "transactionsTrie": "0x56e81f171bcc55a6ff8345e692c0f86e5b48e01b996cadc001622fb5e363b421",
            "receiptTrie": "0x56e81f171bcc55a6ff8345e692c0f86e5b48e01b996cadc001622fb5e363b421",
            "bloom": "0x00000000000000000000000000000000000000000000000000000000000000000000000000000000000000000000000000000000000000000000000000000000000000000000000000000000000000000000000000000000000000000000000000000000000000000000000000000000000000000000000000000000000000000000000000000000000000000000000000000000000000000000000000000000000000000000000000000000000000000000000000000000000000000000000000000000000000000000000000000000000000000000000000000000000000000000000000000000000000000000000000000000000000000000000000000000",
            "difficulty": "0x020000",
            "number": "0x00",
            "gasLimit": "0x016345785d8a0000",
            "gasUsed": "0x00",
            "timestamp": "0x00",
            "extraData": "0x00",
            "mixHash": "0x0000000000000000000000000000000000000000000000000000000000000000",
            "nonce": "0x0000000000000000",
            "hash": "0x25e1dfc1616621c229740e6c9cbecb4903f33022888c6f83db1bded356a4e565"
        },
        "pre": {
            "0x0000000000000000000000000000000000001000": {
                "nonce": "0x01",
                "balance": "0x0ba1a9ce0ba1a9ce",
                "code": "0x60005b617d01811060435760005b6204bcfc8110601c5760018055005b81808060008060045af1600014603e57815115603957600101600d565b600180fd5b600080fd5b807f1f3187e1e48579e38dfc6385a1147e4209d6c84862b5e54c60d7da1e541151506020925201600256",
                "storage": {}
            },
            "0xa94f5374fce5edbc8e2a8697c15331677e6ebf0b": {
                "nonce": "0x00",
                "balance": "0x0ba1a9ce0ba1a9ce",
                "code": "0x",
                "storage": {}
            }
        },
        "postState": {
            "0x0000000000000000000000000000000000001000": {
                "nonce": "0x01",
                "balance": "0x0ba1a9ce0ba1a9ce",
                "code": "0x60005b617d01811060435760005b6204bcfc8110601c5760018055005b81808060008060045af1600014603e57815115603957600101600d565b600180fd5b600080fd5b807f1f3187e1e48579e38dfc6385a1147e4209d6c84862b5e54c60d7da1e541151506020925201600256",
                "storage": {
                    "0x01": "0x01"
                }
            },
            "0x2adc25665018aa1fe0e6bc666dac8fc2697ff9ba": {
                "nonce": "0x00",
                "balance": "0x1bc16d69a2d37b82",
                "code": "0x",
                "storage": {}
            },
            "0xa94f5374fce5edbc8e2a8697c15331677e6ebf0b": {
                "nonce": "0x01",
                "balance": "0x0ba1a9cbb7962e4c",
                "code": "0x",
                "storage": {}
            }
        },
        "lastblockhash": "0xd9b9bf74779e4f0c6ef338fdb375fd0c7287dbda73d944ffd93f207cdd78d300",
        "config": {
            "network": "Berlin",
            "chainid": "0x01"
        },
        "genesisRLP": "0xf901fdf901f8a00000000000000000000000000000000000000000000000000000000000000000a01dcc4de8dec75d7aab85b567b6ccd41ad312451b948a7413f0a142fd40d49347940000000000000000000000000000000000000000a0dd18e83746eb9f67962d93171c8d25bc6aa104d56f8bec32f2672c82f87d311ea056e81f171bcc55a6ff8345e692c0f86e5b48e01b996cadc001622fb5e363b421a056e81f171bcc55a6ff8345e692c0f86e5b48e01b996cadc001622fb5e363b421b9010000000000000000000000000000000000000000000000000000000000000000000000000000000000000000000000000000000000000000000000000000000000000000000000000000000000000000000000000000000000000000000000000000000000000000000000000000000000000000000000000000000000000000000000000000000000000000000000000000000000000000000000000000000000000000000000000000000000000000000000000000000000000000000000000000000000000000000000000000000000000000000000000000000000000000000000000000000000000000000000000000000000000000000000000000000000830200008088016345785d8a0000808000a00000000000000000000000000000000000000000000000000000000000000000880000000000000000c0c0",
        "blocks": [
            {
                "blockHeader": {
                    "parentHash": "0x25e1dfc1616621c229740e6c9cbecb4903f33022888c6f83db1bded356a4e565",
                    "uncleHash": "0x1dcc4de8dec75d7aab85b567b6ccd41ad312451b948a7413f0a142fd40d49347",
                    "coinbase": "0x2adc25665018aa1fe0e6bc666dac8fc2697ff9ba",
                    "stateRoot": "0xcb2213b26d2d96fba895fc52a438f10131f4d912327c3529a3b34a4f9b7d11f0",
                    "transactionsTrie": "0x6b2dd95085391825d3505fc3ac7d2b709b37f3b85d1fc175a52e455c6282e3b8",
                    "receiptTrie": "0x06f11dfa1434d7401330dec7e3cd994dbac823591b1ea908746182f10304c045",
                    "bloom": "0x00000000000000000000000000000000000000000000000000000000000000000000000000000000000000000000000000000000000000000000000000000000000000000000000000000000000000000000000000000000000000000000000000000000000000000000000000000000000000000000000000000000000000000000000000000000000000000000000000000000000000000000000000000000000000000000000000000000000000000000000000000000000000000000000000000000000000000000000000000000000000000000000000000000000000000000000000000000000000000000000000000000000000000000000000000000",
                    "difficulty": "0x020000",
                    "number": "0x01",
                    "gasLimit": "0x016345785d8a0000",
                    "gasUsed": "0x3b9abf8d",
                    "timestamp": "0x0c",
                    "extraData": "0x",
                    "mixHash": "0x0000000000000000000000000000000000000000000000000000000000000000",
                    "nonce": "0x0000000000000000",
                    "hash": "0xd9b9bf74779e4f0c6ef338fdb375fd0c7287dbda73d944ffd93f207cdd78d300"
                },
                "transactions": [
                    {
                        "type": "0x00",
                        "chainId": "0x01",
                        "nonce": "0x00",
                        "gasPrice": "0x0a",
                        "gasLimit": "0x3b9aca00",
                        "to": "0x0000000000000000000000000000000000001000",
                        "value": "0x00",
                        "data": "0x",
                        "v": "0x26",
                        "r": "0xc86d9534e86da52b37e382847ed34e2f7743320797b42d0f20de55a9e95482aa",
                        "s": "0x3e092d7280242c4c162064990cadc07cb89367b8be86278f35e5089d92aa4302",
                        "sender": "0xa94f5374fce5edbc8e2a8697c15331677e6ebf0b"
                    }
                ],
                "uncleHeaders": [],
                "rlp": "0xf90265f901fca025e1dfc1616621c229740e6c9cbecb4903f33022888c6f83db1bded356a4e565a01dcc4de8dec75d7aab85b567b6ccd41ad312451b948a7413f0a142fd40d49347942adc25665018aa1fe0e6bc666dac8fc2697ff9baa0cb2213b26d2d96fba895fc52a438f10131f4d912327c3529a3b34a4f9b7d11f0a06b2dd95085391825d3505fc3ac7d2b709b37f3b85d1fc175a52e455c6282e3b8a006f11dfa1434d7401330dec7e3cd994dbac823591b1ea908746182f10304c045b9010000000000000000000000000000000000000000000000000000000000000000000000000000000000000000000000000000000000000000000000000000000000000000000000000000000000000000000000000000000000000000000000000000000000000000000000000000000000000000000000000000000000000000000000000000000000000000000000000000000000000000000000000000000000000000000000000000000000000000000000000000000000000000000000000000000000000000000000000000000000000000000000000000000000000000000000000000000000000000000000000000000000000000000000000000000000830200000188016345785d8a0000843b9abf8d0c80a00000000000000000000000000000000000000000000000000000000000000000880000000000000000f863f861800a843b9aca00940000000000000000000000000000000000001000808026a0c86d9534e86da52b37e382847ed34e2f7743320797b42d0f20de55a9e95482aaa03e092d7280242c4c162064990cadc07cb89367b8be86278f35e5089d92aa4302c0",
                "blocknumber": "1"
            }
        ],
        "sealEngine": "NoProof",
        "_info": {
            "hash": "0x4fe160f21dfe133d3f6123b6d495dbc152fb631ea2e7f2b638c43c053b54ef8f",
            "comment": "`execution-spec-tests` generated test",
            "filling-transition-tool": "evm version 1.16.2-unstable-9c58810e-20250801",
            "description": "Test function documentation:\n\nAt current priceOne transaction fills Test ecMul precompiled bytecode.",
            "url": "https://github.com/ethereum/execution-spec-tests/tree/v4.3.0/tests/monad/precompile_benchmarks/test_identity.py#L309",
            "fixture-format": "blockchain_test"
        }
    }
}